:020000040000FA
:10000000100A0020050200000D0200000F0200008F
:1000100011020000130200001502000000000000A1
:1000200000000000000000000000000017020000B7
:1000300019020000000000001B0200001D02000069
:100040002D2D000089230000912B00006D2300005E
:10005000752B00007906000095060000B10600002F
:10006000CD060000E906000005070000692C00002D
:10007000212B00003D2B0000AD2B0000F92C0000CF
:10008000A5230000592B0000000000000000000024
:100090000000000000000000000000000000000060
:1000A0000000000000000000000000000000000050
:1000B0000000000000000000000000000000000040
:1000C0000000000000000000000000000000000030
:1000D0000000000000000000000000000000000020
:1000E0000000000000000000000000000000000010
:1000F0000000000000000000000000000000000000
:1001000000000000000000000000000000000000EF
:10011000000000000000000000F002F800F062F8AB
:100120000AA090E8000C82448344AAF10107DA4552
:1001300001D100F057F8AFF2090EBAE80F0013F042
:10014000010F18BFFB1A43F0010318479C3700004A
:10015000BC3700000A444FF0000C10F8013B13F0CC
:10016000070408BF10F8014B1D1108BF10F8015B10
:10017000641E05D010F8016B641E01F8016BF9D103
:1001800013F0080F1EBF10F8014BAD1C0C1B09D15A
:100190006D1E58BF01F801CBFAD505E014F8016BCC
:1001A00001F8016B6D1EF9D59142D6D3704700005E
:1001B0000023002400250026103A28BF78C1FBD870
:1001C000520728BF30C148BF0B607047642900F058
:1001D000A380732900F07D81002070471FB51FBDEB
:1001E00010B510BD00F0F6F91146FFF7F7FF02F069
:1001F000D3FD00F014FA03B4FFF7F2FF03BC00F0E4
:10020000F7F800000948804709480047FEE7FEE785
:10021000FEE7FEE7FEE7FEE7FEE7FEE7FEE7FEE7B6
:1002200004480549054A064B70470000C92B0000E9
:100230001901000010050020100A002010060020FF
:10024000100600200FB4044910B503AA029800F06C
:1002500045F910BC5DF814FB400400202DE9F04185
:100260000E460446002020622046E168884730B3ED
:10027000252805D0D4E901219047206A401CF2E7E7
:10028000E168204600278847050018D0A5F1410005
:10029000192802D820354FF40067324629462046F7
:1002A0002760FFF793FF40B1012804D0F61D26F028
:1002B00007060836D8E7361DD6E72846DAE7206A6B
:1002C000BDE8F08170B50C460546012A05D02878B6
:1002D000800600D5EA69002302E0012305E05B1CEB
:1002E000934202D2E05C0028F9D1A869E618C01A4E
:1002F000A861286A184428622846AFF3008004E009
:10030000D5E9012114F8010B9047B442F8D32846EF
:10031000AFF3008070BD00002DE9F04106460024D7
:1003200010687529314616A510D0AFF3008000285B
:1003300002DA404213A507E031688A0701D512A509
:1003400002E0490704D511A5012401E0AFF30080C4
:1003500000210A2206F1240709E0B0FBF2FCB0FB01
:10036000F2F302FB1C00303078541846491C002878
:10037000F3D123462A463046BDE8F04100F03EB8AE
:10038000000000002D0000002B00000020000000F5
:1003900010B5002000F0B4F8FFF722FFBDE81040D0
:1003A000012000F025B84FF000020429C0F01280AF
:1003B00010F0030C00F0AD80CCF1040CBCF1020F86
:1003C00018BF00F8012BA8BF20F8022BA1EB0C01ED
:1003D00000F09FB85FEAC17C24BF00F8012B00F851
:1003E000012B48BF00F8012B7047704770477047DA
:1003F00001491820ABBEFEE7260002002DE9F047B8
:100400000D4699469246044600F124080168880684
:1004100004D5E06921F01001216000E00120A8422C
:1004200001DD471B00E00027A1697A1902EB0900F2
:10043000081AA0612078C00602D42046AFF30080DD
:10044000002608E0D4E901211AF806009047206A46
:10045000401C761C20624E45F4DB2078C0060AD58D
:100460002046AFF3008006E0D4E901213020904718
:10047000206A401C2062381EA7F10107F4DC07E067
:10048000D4E9012118F805009047206A401C206239
:10049000281EA5F10105F3DC2046AFF3008020788B
:1004A000000602D50220BDE8F0870120FBE710B569
:1004B000436913B1AFF3008001E0FFF703FF0120B0
:1004C00010BD127800F124010A7000224A70012246
:1004D000EDE711684FF0FF32E9E70000074B70B518
:1004E0000D467B4400F041F80446284600F050F8E1
:1004F00010B14FF0FF3070BD204670BD872800005E
:1005000010B500F04FF8BDE8104000F045B84FF0CE
:10051000000200B5134694469646203922BFA0E853
:100520000C50A0E80C50B1F12001BFF4F7AF09075F
:1005300028BFA0E80C5048BF0CC05DF804EB890050
:1005400028BF40F8042B08BF704748BF20F8022B93
:1005500011F0804F18BF00F8012B70477047000062
:1005600001694A1C02610878704700B58FB0CDE977
:1005700001310021059105497944CDE90310114667
:100580006846FFF76BFE0FB000BD0000E5FFFFFF00
:10059000007B00F080007047002801D0FFF728BFE3
:1005A0007047000010B5002102A000F041F80120C2
:1005B00010BD0000534947414252543A2041626EF7
:1005C0006F726D616C207465726D696E6174696FB4
:1005D0006E000000754600F04BF8AE460500694617
:1005E000534620F00700854618B020B5FFF718FEE7
:1005F000BDE820404FF000064FF000074FF0000824
:100600004FF0000B21F00701AC46ACE8C009ACE8A4
:10061000C009ACE8C009ACE8C0098D46704710B508
:100620000446AFF300802046BDE81040FFF7E3BD6D
:1006300070B505460C460A2000E06D1C00F011F86C
:1006400035B128780028F8D102E0641C00F009F8E0
:1006500014B120780028F8D1BDE870400A20AFF32B
:10066000008008B569468DF800000320ABBE08BDC8
:1006700000487047B0040020054910B5283104D067
:1006800048680968BDE810400847FFF781FE000090
:1006900088000000054910B5303104D04868096869
:1006A000BDE810400847FFF773FE00008800000017
:1006B000054910B5383104D048680968BDE81040D4
:1006C0000847FFF765FE000088000000054910B5E7
:1006D000403104D048680968BDE810400847FFF77A
:1006E00057FE000088000000054910B5483104D0CD
:1006F00048680968BDE810400847FFF749FE000058
:1007000088000000054910B5503104D048680968D8
:10071000BDE810400847FFF73BFE000088000000DE
:10072000F0B5174C0025174EA561B2F1807F3560FA
:1007300001D3C2F10042091AB1FBF3F6A26540F2FF
:1007400071225643170103EB830252000E4BB7EBA5
:10075000061F04D201EB81012570490003E0012549
:1007600025700A4D6943B1FBF2F119600849B1FBEC
:10077000F0F0084908620849A06D0862F0BD000069
:100780009C0300205C030020D4020020A08601000E
:1007900000E1F50500A0002000E000202DE9F04F69
:1007A0003849486838484C68DFF8E4A004603748A6
:1007B000384AAAF1800A016840F6354721F07F41A6
:1007C000016089463449324816780988C06801FBBF
:1007D00007F501EB8107DFF8C4B0314BDAF80420EC
:1007E000DAF84C10844218D2504609B1491EC1644F
:1007F000DAF84C00012E00FB02F006D000EB4701B6
:10080000BBFBF1F01862BDE8F08F00EB4511BBFBBC
:10081000F1F042F210714843F4E72248DFF888E033
:100820000088DEF800C000EB80080CF10100BCEB92
:10083000480F1AD2CEF80000012E0DD000FB02F1B5
:1008400001EB4702BBFBF2F119621149A9EB04026B
:10085000CA60CAF84C00D6E7514301EB4512BBFB16
:10086000F2F142F210725143EEE7CCD1CEF8000023
:100870000748A9EB0401C1600C480D490068B1FBB1
:10088000F0F0BFE700800020B4030020F403002054
:10089000500300209C0300204800002000CA9A3B1F
:1008A00000A0002068000020000000208800002038
:1008B00000E1F505F0B5174C0025174EE561B2F1E2
:1008C000807F356001D3C2F10042091AB1FBF3F613
:1008D000E26540F271225643170103EB8302520096
:1008E0000E4BB7EB061F04D201EB81016570490086
:1008F00003E0012565700A4D6943B1FBF2F119600F
:100900000849B1FBF0F0084908640849E06D086443
:10091000F0BD00009C03002060030020D8020020EE
:10092000A086010000E1F50500A0002000E0002005
:100930002DE9F04F3849886838488C68DFF8E4A022
:1009400004603748384AAAF1800A016840F6354702
:1009500021F07F4101608946344932481678098880
:10096000006901FB07F501EB8107DFF8C4B0314BEB
:10097000DAF80820DAF85010844218D2504609B14B
:10098000491E0165DAF85000012E00FB02F006D086
:1009900000EB4701BBFBF1F01864BDE8F08F00EB02
:1009A0004511BBFBF1F042F210714843F4E72248D5
:1009B000DFF888E00088DEF800C000EB80080CF16A
:1009C0000100BCEB480F1AD2CEF80000012E0DD06A
:1009D00000FB02F101EB4702BBFBF2F11964114984
:1009E000A9EB04020A61CAF85000D6E7514301EBB3
:1009F0004512BBFBF2F142F210725143EEE7CCD14B
:100A0000CEF800000748A9EB040101610C480D492C
:100A10000068B1FBF0F0BFE700800020B8030020C1
:100A2000F8030020500300209D0300204A0000200E
:100A300000CA9A3B00A000206A00002004000020A9
:100A40008C00002000E1F505F0B5174C0025174E8D
:100A50002562B2F1807F356001D3C2F10042091AEC
:100A6000B1FBF3F6226640F271225643170103EB05
:100A7000830252000E4BB7EB061F04D201EB81013B
:100A8000A570490003E00125A5700A4D6943B1FB3B
:100A9000F2F119600849B1FBF0F0084948600849D3
:100AA000206E4860F0BD00009C030020640300201D
:100AB000DC020020A086010000E1F5050080002096
:100AC00000C000202DE9F04F3849086938480C690A
:100AD000DFF8E4A004603748384BAAF1800A0268C6
:100AE00040F6354722F07F4202609146344A324850
:100AF0001E781288406902FB07F502EB8207DFF8D7
:100B0000C4B0DAF80C30DAF85420844218D25046D7
:100B10000AB1521E4265DAF85400012E00FB03F0C0
:100B200006D000EB4702BBFBF2F04860BDE8F08F57
:100B300000EB4512BBFBF2F042F210725043F4E7B7
:100B40002148DFF888E00088DEF8008000EB800CA8
:100B500008F10100B8EB4C0F1AD2CEF80000012EBC
:100B60000DD000FB03F202EB4703BBFBF3F24A603C
:100B70001149A9EB04024A61CAF85400D6E75A4366
:100B800002EB4513BBFBF3F242F210735A43EEE75C
:100B9000CCD1CEF800000848A9EB040242610C4811
:100BA0000C4A0068B2FBF0F0BFE7000000800020B4
:100BB000BC030020FC030020500300209E03002003
:100BC0004C00002000CA9A3B6C0000200800002066
:100BD0009000002000E1F505F0B5174C0025174EF8
:100BE0006562B2F1807F356001D3C2F10042091A1B
:100BF000B1FBF3F6626640F271225643170103EB34
:100C0000830252000E4BB7EB061F04D201EB8101A9
:100C1000E570490003E00125E5700A4D6943B1FB29
:100C2000F2F119600849B1FBF0F008498860084901
:100C3000606E8860F0BD00009C0300206803002007
:100C4000E0020020A086010000E1F5050080002000
:100C500000C000202DE9F04F3849086A38480C6A76
:100C6000DFF8E4A004603748384BAAF1800A026834
:100C700040F6354722F07F4202609146344A3248BE
:100C80001E781288806902FB07F502EB8207DFF805
:100C9000C4B0DAF81030DAF85820844218D250463E
:100CA0000AB1521E8265DAF85800012E00FB03F0EB
:100CB00006D000EB4702BBFBF2F08860BDE8F08F86
:100CC00000EB4512BBFBF2F042F210725043F4E726
:100CD0002148DFF888E00088DEF8008000EB800C17
:100CE00008F10100B8EB4C0F1AD2CEF80000012E2B
:100CF0000DD000FB03F202EB4703BBFBF3F28A606B
:100D00001149A9EB04028A61CAF85800D6E75A4390
:100D100002EB4513BBFBF3F242F210735A43EEE7CA
:100D2000CCD1CEF800000848A9EB040282610C483F
:100D30000C4A0068B2FBF0F0BFE700000080002022
:100D4000C003002000040020500300209F03002067
:100D50004E00002000CA9A3B6E0000200C000020CC
:100D60009400002000E1F505F0B5174C0025174E62
:100D7000A562B2F1807F356001D3C2F10042091A49
:100D8000B1FBF3F6A26640F271225643170103EB62
:100D9000830252000E4BB7EB061F04D201EB810118
:100DA0002571490003E0012525710A4D6943B1FB16
:100DB000F2F119600849B1FBF0F0084908610849EF
:100DC000A06E0861F0BD00009C0300206C030020B1
:100DD000E4020020A086010000E1F505008000206B
:100DE00000C000202DE9F04F3849086C38480C6CE1
:100DF000DFF8E4A004603748384BAAF1800A0268A3
:100E000040F6354722F07F4202609146344A32482C
:100E10001E781288C06902FB07F502EB8207DFF833
:100E2000C4B0DAF81430DAF85C20844218D25046A4
:100E30000AB1521EC265DAF85C00012E00FB03F015
:100E400006D000EB4702BBFBF2F00861BDE8F08F73
:100E500000EB4512BBFBF2F042F210725043F4E794
:100E60002148DFF888E00088DEF8008000EB800C85
:100E700008F10100B8EB4C0F1AD2CEF80000012E99
:100E80000DD000FB03F202EB4703BBFBF3F20A6158
:100E90001149A9EB0402CA61CAF85C00D6E75A43BB
:100EA00002EB4513BBFBF3F242F210735A43EEE739
:100EB000CCD1CEF800000848A9EB0402C2610C486E
:100EC0000C4A0068B2FBF0F0BFE700000080002091
:100ED000C40300200404002050030020A0030020CD
:100EE0005000002000CA9A3B700000201000002033
:100EF0009800002000E1F505F0B5174C0025174ECD
:100F0000E562B2F1807F356001D3C2F10042091A77
:100F1000B1FBF3F6E26640F271225643170103EB90
:100F2000830252000E4BB7EB061F04D201EB810186
:100F30006571490003E0012565710A4D6943B1FB04
:100F4000F2F119600849B1FBF0F00849086208495C
:100F5000E06E0862F0BD00009C03002070030020DA
:100F6000E8020020A086010000E1F50500800020D5
:100F700000C000202DE9F04F3949D1F880003948F0
:100F8000D1F88040DFF8E4A004603748384BAAF17C
:100F9000800A026840F6354722F07F42026091469F
:100FA000344A32481E781288006A02FB07F502EBC9
:100FB0008207DFF8C4B0DAF81830DAF8602084422B
:100FC00018D250460AB1521E0266DAF86000012EAD
:100FD00000FB03F006D000EB4702BBFBF2F0086217
:100FE000BDE8F08F00EB4512BBFBF2F042F210724D
:100FF0005043F4E72148DFF888E00088DEF80080FD
:1010000000EB800C08F10100B8EB4C0F1AD2CEF8BF
:101010000000012E0DD000FB03F202EB4703BBFBE7
:10102000F3F20A621149A9EB04020A62CAF86000ED
:10103000D6E75A4302EB4513BBFBF3F242F21073BF
:101040005A43EEE7CCD1CEF800000848A9EB0402E1
:1010500002620C480C4A0068B2FBF0F0BFE70000E7
:1010600000800020C8030020080400205003002056
:10107000A10300205200002000CA9A3B7200002009
:10108000140000209C00002000E1F505F0B5174C8D
:101090000025174E2563B2F1807F356001D3C2F180
:1010A0000042091AB1FBF3F6226740F2712256435F
:1010B000170103EB830252000E4BB7EB061F04D25D
:1010C00001EB8101A571490003E00125A5710A4DDD
:1010D0006943B1FBF2F119600849B1FBF0F008492E
:1010E00008640849206F0864F0BD00009C030020DC
:1010F00074030020EC020020A086010000E1F50549
:101100000080002000C000202DE9F04F3949D1F8BF
:1011100000013948D1F80041DFF8E4A00460374805
:10112000384BAAF1800A026840F6354722F07F4228
:1011300002609146344A32481E781288406A02FBA7
:1011400007F502EB8207DFF8C4B0DAF81C30DAF8F2
:101150006420844218D250460AB1521E4266DAF820
:101160006400012E00FB03F006D000EB4702BBFB3E
:10117000F2F00864BDE8F08F00EB4512BBFBF2F023
:1011800042F210725043F4E72148DFF888E000880B
:10119000DEF8008000EB800C08F10100B8EB4C0F8A
:1011A0001AD2CEF80000012E0DD000FB03F202EBA4
:1011B0004703BBFBF3F20A641149A9EB04024A623C
:1011C000CAF86400D6E75A4302EB4513BBFBF3F2BF
:1011D00042F210735A43EEE7CCD1CEF80000084833
:1011E000A9EB040242620C480C4A0068B2FBF0F022
:1011F000BFE7000000800020CC0300200C0400208A
:1012000050030020A20300205400002000CA9A3B93
:101210007400002018000020A000002000E1F50567
:10122000F0B5184C0025184E6563B2F1807F35602B
:1012300001D3C2F10042091AB1FBF3F6626740F232
:1012400071225643170103EB830252000F4BB7EB99
:10125000061F04D201EB8101E571490003E001257D
:10126000E5710B4D6943B1FBF2F119600949B1FB1E
:10127000F0F00949C1F880000849606FC1F88000AA
:10128000F0BD00009C03002078030020F002002045
:10129000A086010000E1F5050080002000C00020CC
:1012A0002DE9F04F3B49D1F800023B48D1F800420C
:1012B000DFF8ECA0046039483A4BAAF1800A0268D2
:1012C00040F6354722F07F4202609146364A344864
:1012D0001E781288806A02FB07F502EB8207DFF8AE
:1012E000CCB0DAF82030DAF8682084421AD25046BE
:1012F0000AB1521E8266DAF86800012E00FB03F084
:1013000008D000EB4702BBFBF2F000BFC1F8800041
:10131000BDE8F08F00EB4512BBFBF2F042F2107219
:101320005043F3E72248DFF88CE00088DEF80080C5
:1013300000EB800C08F10100B8EB4C0F1CD2CEF88A
:101340000000012E0FD000FB03F202EB4703BBFBB2
:10135000F3F200BFC1F880201149A9EB04028A62B0
:10136000CAF86800D4E75A4302EB4513BBFBF3F21B
:1013700042F210735A43EDE7CAD1CEF80000084894
:10138000A9EB040202620C480C4A0068B2FBF0F0C0
:10139000BCE7000000800020D003002010040020E3
:1013A00050030020A30300205600002000CA9A3BEF
:1013B000760000201C000020A400002000E1F505BC
:1013C000F0B5184C0025184EA563B2F1807F35604A
:1013D00001D3C2F10042091AB1FBF3F6A26740F251
:1013E00071225643170103EB830252000F4BB7EBF8
:1013F000061F04D201EB81012572490003E001259B
:1014000025720B4D6943B1FBF2F119600949B1FB3B
:10141000F0F00949C1F800010849A06FC1F80001C6
:10142000F0BD00009C0300207C030020F40200209B
:10143000A086010000E1F5050080002000C000202A
:101440002DE9F04F3A4908683A480C68DFF8ECA0FB
:10145000046039483A4AAAF1800A016840F63547E3
:1014600021F07F4101608946364934481678098861
:10147000C06A01FB07F501EB8107DFF8CCB0334B05
:10148000DAF82420DAF86C10844219D2504609B1F7
:10149000491EC166DAF86C00012E00FB02F007D08D
:1014A00000EB4701BBFBF1F0C3F80001BDE8F08F92
:1014B00000EB4511BBFBF1F042F210714843F3E73A
:1014C0002348DFF890E00088DEF800C000EB8008D9
:1014D0000CF10100BCEB480F1CD2CEF80000012E2D
:1014E0000FD000FB02F101EB4702BBFBF2F100BFA2
:1014F000C3F800111149A9EB0402CA62CAF86C00D2
:10150000D4E7514301EB4512BBFBF2F142F21072FA
:101510005143EDE7CAD1CEF800000848A9EB040119
:10152000C1620D480D490068B1FBF0F0BCE7000056
:1015300000840020D4030020140400205003002065
:10154000A40300205800002000CA9A3B008000201D
:101550007800002020000020A800002000E1F50510
:10156000F0B5184C0025184EE563B2F1807F356068
:1015700001D3C2F10042091AB1FBF3F6E26740F26F
:1015800071225643170103EB830252000F4BB7EB56
:10159000061F04D201EB81016572490003E00125B9
:1015A00065720B4D6943B1FBF2F119600949B1FB5A
:1015B000F0F00949C1F800020849E06FC1F80002E3
:1015C000F0BD00009C03002080030020F8020020F2
:1015D000A086010000E1F5050080002000C0002089
:1015E0002DE9F04F3A4908683A480C68DFF8ECA05A
:1015F000046039483A4AAAF1800A016840F6354742
:1016000021F07F41016089463649344816780988BF
:10161000006B01FB07F501EB8107DFF8CCB0334B22
:10162000DAF82820DAF87010844219D2504609B14D
:10163000491E0167DAF87000012E00FB02F007D0A6
:1016400000EB4701BBFBF1F0C3F80002BDE8F08FEF
:1016500000EB4511BBFBF1F042F210714843F3E798
:101660002348DFF890E00088DEF800C000EB800837
:101670000CF10100BCEB480F1CD2CEF80000012E8B
:101680000FD000FB02F101EB4702BBFBF2F100BF00
:10169000C3F800121149A9EB04020A63CAF87000EA
:1016A000D4E7514301EB4512BBFBF2F142F2107259
:1016B0005143EDE7CAD1CEF800000848A9EB040178
:1016C00001630D480D490068B1FBF0F0BCE7000074
:1016D00000880020D80300201804002050030020B8
:1016E000A50300205A00002000CA9A3B0080002079
:1016F0007A00002024000020AC00002000E1F50565
:10170000F0B5184C0026184D2664B2F1807F2E608B
:1017100004F1800501D3C2F10042091AB1FBF3F7CD
:101720002A6040F27122574303EB830242F2107C9D
:1017300052000E4BBCEB071F04D201EB8101A672D5
:10174000490003E00126A672094C6143B1FBF2F1A6
:1017500019600849B1FBF0F007490860074928689B
:101760000860F0BD9C03002084030020FC020020E0
:10177000A086010000E1F5050084002000C40020DF
:101780002DE9F04F3849086838480C68DFF8E4A0C4
:1017900004603748384AAAF1800A016840F63547A4
:1017A00021F07F4101608946344932481678098822
:1017B000406B01FB07F501EB8107DFF8C4B0314B4B
:1017C000DAF82C20DAF87410844218D2504609B1A5
:1017D000491E4167DAF87400012E00FB02F006D0C2
:1017E00000EB4701BBFBF1F01860BDE8F08F00EBA8
:1017F0004511BBFBF1F042F210714843F4E7224877
:10180000DFF888E00088DEF800C000EB80080CF10B
:101810000100BCEB480F1AD2CEF80000012E0DD00B
:1018200000FB02F101EB4702BBFBF2F11960114929
:10183000A9EB04024A63CAF87400D6E7514301EBEE
:101840004512BBFBF2F142F210725143EEE7CCD1EC
:10185000CEF800000748A9EB040141630C480D498C
:101860000068B1FBF0F0BFE700900020DC0300202F
:101870001C04002050030020A60300205C00002070
:1018800000CA9A3B008400207C0000202800002031
:10189000B000002000E1F505F0B5184C0026184D09
:1018A0006664B2F1807F2E6004F1800501D3C2F13D
:1018B0000042091AB1FBF3F76A6040F27122574304
:1018C00003EB830242F2107C52000E4BBCEB071F6D
:1018D00004D201EB8101E672490003E00126E672C1
:1018E000094C6143B1FBF2F119600849B1FBF0F01A
:1018F00007490860074968680860F0BD9C0300203C
:101900008803002000030020A086010000E1F50507
:101910000088002000C800202DE9F04F38494868B1
:1019200038484C68DFF8E4A004603748384AAAF128
:10193000800A016840F6354721F07F410160894601
:101940003449324816780988806B01FB07F501EBB2
:101950008107DFF8C4B0314BDAF83020DAF87810BC
:10196000844218D2504609B1491E8167DAF87800DE
:10197000012E00FB02F006D000EB4701BBFBF1F0AB
:101980001860BDE8F08F00EB4511BBFBF1F042F2AF
:1019900010714843F4E72248DFF888E00088DEF859
:1019A00000C000EB80080CF10100BCEB480F1AD21C
:1019B000CEF80000012E0DD000FB02F101EB470232
:1019C000BBFBF2F119601149A9EB04028A63CAF862
:1019D0007800D6E7514301EB4512BBFBF2F142F22E
:1019E00010725143EEE7CCD1CEF800000748A9EBC6
:1019F000040181630C480D490068B1FBF0F0BFE7BA
:101A000000A00020E003002020040020500300205C
:101A1000A70300205E00002000CA9A3B0088002037
:101A20007E0000202C000020B400002000E1F5051D
:101A3000F0B5184C0026184DA664B2F1807F2E60D8
:101A400004F1800501D3C2F10042091AB1FBF3F79A
:101A5000AA6040F27122574303EB830242F2107CEA
:101A600052000E4BBCEB071F04D201EB8101267321
:101A7000490003E001262673094C6143B1FBF2F1F2
:101A800019600849B1FBF0F0074908600749A868E8
:101A90000860F0BD9C0300208C030020040300209C
:101AA000A086010000E1F5050090002000D0002094
:101AB0002DE9F04F3849886838488C68DFF8E4A091
:101AC00004603748384AAAF1800A016840F6354771
:101AD00021F07F41016089463449324816780988EF
:101AE000C06B01FB07F501EB8107DFF8C4B0314B98
:101AF000DAF83420DAF87C10844218D2504609B162
:101B0000491EC167DAF87C00012E00FB02F006D006
:101B100000EB4701BBFBF1F01860BDE8F08F00EB74
:101B20004511BBFBF1F042F210714843F4E7224843
:101B3000DFF888E00088DEF800C000EB80080CF1D8
:101B40000100BCEB480F1AD2CEF80000012E0DD0D8
:101B500000FB02F101EB4702BBFBF2F119601149F6
:101B6000A9EB0402CA63CAF87C00D6E7514301EB33
:101B70004512BBFBF2F142F210725143EEE7CCD1B9
:101B8000CEF800000748A9EB0401C1630C480D49D9
:101B90000068B1FBF0F0BFE700A00020E4030020E4
:101BA0002404002050030020A8030020600000202F
:101BB00000CA9A3B009000208000002030000020E6
:101BC000B800002000E1F505F0B5184C0026184DCE
:101BD000E664B2F1807F2E6004F1800501D3C2F18A
:101BE0000042091AB1FBF3F7EA6040F27122574351
:101BF00003EB830242F2107C52000E4BBCEB071F3A
:101C000004D201EB81016673490003E0012666738B
:101C1000094C6143B1FBF2F119600849B1FBF0F0E6
:101C2000074948600749E8684860F0BD9C03002008
:101C30009003002008030020A086010000E1F505C4
:101C400000A0002000E000202DE9F04F374908698E
:101C500037480C69DFF8E0A004603648374B384D50
:101C6000026840F6354722F07F4291460260AAF1B1
:101C700080021E78936B2A88DAF82C0002FB07F5A5
:101C800002EB82075246DFF8BCB01268844218D2D9
:101C900050460AB1521E0260DAF80000012E00FB25
:101CA00003F006D000EB4702BBFBF2F04860BDE852
:101CB000F08F00EB4512BBFBF2F042F21072504382
:101CC000F4E72148DFF884E00088DEF8008000EBCC
:101CD000800C08F10100B8EB4C0F1AD2CEF80000CE
:101CE000012E0DD000FB03F202EB4703BBFBF3F226
:101CF0004A60A9EB0402CAF84020CAF80000D6E7FF
:101D00005A4302EB4513BBFBF3F242F210735A4302
:101D1000EEE7CCD1CEF80000A9EB04020C48CAF8DB
:101D200040200C4A0068B2FBF0F0BFE700A00020A2
:101D3000E80300202804002050030020A90300200D
:101D40006200002000CA9A3B82000020340000207C
:101D5000BC00002000E1F505F0B5184C0026184D38
:101D60002665B2F1807F2E6004F1800501D3C2F1B7
:101D70000042091AB1FBF3F72A6140F2712257437E
:101D800003EB830242F2107C52000E4BBCEB071FA8
:101D900004D201EB8101A673490003E00126A6737A
:101DA000094C6143B1FBF2F119600849B1FBF0F055
:101DB00007498860074928698860F0BD9C030020B6
:101DC000940300200C030020A086010000E1F5052B
:101DD00000A0002000E000202DE9F04F3349086A00
:101DE00033480C6A364D04603248344E40F6354C68
:101DF0000268DFF8D0A022F07F42026091462E4AAE
:101E00002F88A2F18003D06A3678DB6B07FB0CF5D4
:101E100007EB8707844216D2506808B1401E506015
:101E2000012E00FB03F006D000EB4702BAFBF2F0F4
:101E30008860BDE8F08F00EB4512BAFBF2F042F289
:101E400010725043F4E72048DFF880B00088DBF8D8
:101E5000008000EB800C08F10100B8EB4C0F18D2A9
:101E6000CBF80000012E0AD0434303EB4705BAFB31
:101E7000F5F38B60A9EB040151645060D9E7566813
:101E80005E4306EB4515BAFBF5F342F210756B4362
:101E9000EFE7CED1CBF80000A9EB040050640C486A
:101EA0000C4A0068B2FBF0F0C2E7000000A000207E
:101EB000EC0300202C04002050030020AA03002083
:101EC0006400002000CA9A3B8400002038000020F3
:101ED000C000002000E1F505F0B5184C0026184DB3
:101EE0006665B2F1807F2E6004F1800501D3C2F1F6
:101EF0000042091AB1FBF3F76A6140F271225743BD
:101F000003EB830242F2107C52000E4BBCEB071F26
:101F100004D201EB8101E673490003E00126E67378
:101F2000094C6143B1FBF2F119600849B1FBF0F0D3
:101F300007490861074968690861F0BD9C030020F2
:101F40009803002010030020A086010000E1F505A1
:101F500000A0002000E000202DE9F04F3349086C7C
:101F600033480C6C364D04603248344E40F6354CE4
:101F70000268DFF8D0A022F07F42026091462E4A2C
:101F80002F88A2F18003D06A36781B6C07FB0CF512
:101F900007EB8707844216D2906808B1401E906014
:101FA000012E00FB03F006D000EB4702BAFBF2F073
:101FB0000861BDE8F08F00EB4512BAFBF2F042F287
:101FC00010725043F4E72048DFF880B00088DBF857
:101FD000008000EB800C08F10100B8EB4C0F18D228
:101FE000CBF80000012E0AD0434303EB4705BAFBB0
:101FF000F5F30B61A9EB040191649060D9E7966851
:102000005E4306EB4515BAFBF5F342F210756B43E0
:10201000EFE7CED1CBF80000A9EB040090640C48A8
:102020000C4A0068B2FBF0F0C2E7000000A00020FC
:10203000F00300203004002050030020AB030020F8
:102040006600002000CA9A3B860000203C00002069
:10205000C400002000E1F5050B48CD210170EB2103
:102060004170A0F1980149690A0E8270090CC17093
:10207000064909680A0E02710A0C42710A0A827145
:10208000C171082100F03FBD340400201803002076
:102090002DE9F04105460C46C80709D06E48038873
:1020A0006E4802686E4801686E480088FEF738FB8B
:1020B000A00709D56C4803886C4802686C48016821
:1020C0006C480088FEF7F6FB600709D56A4803886C
:1020D0006A4802686A4801686A480088FEF7B4FCEA
:1020E000200709D56848038868480268684801687D
:1020F00068480088FEF770FDE00609D56648038849
:10210000664802686648016866480088FEF72CFE4B
:10211000A00609D5644803886448026864480168D9
:1021200064480088FEF7E8FE600609D56248038827
:10213000624802686248016862480088FEF7A6FFAC
:10214000200609D560480388604802686048016835
:1021500060480088FFF764F8E80709D05E48038804
:102160005E4802685E4801685E480088FFF728F90B
:10217000A80709D55C4803885C4802685C48016888
:102180005C480088FFF7ECF9680709D55A480388CE
:102190005A4802685A4801685A480088FFF7B0FA5E
:1021A000280709D5584803885848026858480168E4
:1021B00058480088FFF770FBE80609D556480388A1
:1021C000564802685648016856480088FFF730FCB8
:1021D000A80609D554480388544802685448016841
:1021E00054480088FFF7F0FC680609D55248038878
:1021F000524802685248016852480088FFF7ACFD17
:10220000280609D55048038850480268504801689C
:1022100050480088FFF760FE4F4904EB052000049A
:10222000C1F880004D48002606704D4850F8801FC8
:102230004C4C216100684C4D4FF47A77606105E0A9
:102240002868B84202D12E60FFF706FF60690028B7
:10225000F6D1BDE8F081000068000020C800002031
:1022600088000020480000206A000020CC000020E8
:102270008C0000204A0000206C000020D0000020CC
:10228000900000204C0000206E000020D4000020B0
:10229000940000204E00002070000020D800002094
:1022A000980000205000002072000020DC00002078
:1022B0009C0000205200002074000020E00000205C
:1022C000A00000205400002076000020E400002040
:1022D000A40000205600002078000020E800002024
:1022E000A8000020580000207A000020EC00002008
:1022F000AC0000205A0000207C000020F0000020EC
:10230000B00000205C0000207E000020F4000020CF
:10231000B40000205E00002080000020F8000020B3
:10232000B80000206000002082000020FC00002097
:10233000BC0000206200002084000020000100207A
:10234000C00000206400002086000020040100205E
:10235000C40000206600002000E0002042000020B1
:1023600000A000209C03002014030020054910B5A4
:10237000183104D048680968BDE810400847FEF7E6
:1023800007F8000088000000054910B5083104D0A6
:1023900048680968BDE810400847FDF7F9FF0000EC
:1023A00088000000054910B5803104D048680968EC
:1023B000BDE810400847FDF7EBFF00008800000073
:1023C0002DE9F04104460D46174600BF4FF080400E
:1023D000406906463FB90120A8408643304600F0D8
:1023E00062FDBDE8F081102D77D2DFE805F008131B
:1023F0001E29343F4A55606B77828D98A3AE00BF8B
:102400004FF08040806964F303004FF080418861A1
:1024100000BFA6E000BF4FF08040806964F3071062
:102420004FF08041886100BF9BE000BF4FF08040CB
:10243000806964F30B204FF08041886100BF90E019
:1024400000BF4FF08040806964F30F304FF080414F
:10245000886100BF85E000BF4FF08040806964F371
:1024600013404FF08041886100BF7AE000BF4FF019
:102470008040806964F317504FF08041886100BF4D
:102480006FE000BF4FF08040806964F31B604FF045
:102490008041886100BF64E000BF4FF080408069E8
:1024A00064F31F704FF08041886100BF59E000BFA6
:1024B0004FF08040C06964F303004FF08041C86171
:1024C00000BF4EE000BF4FF08040C06964F30710CA
:1024D0004FF08041C86100BF43E041E000BF4FF0D2
:1024E0008040C06964F30B204FF08041C86100BF99
:1024F00037E000BF4FF08040C06964F30F304FF009
:102500008041C86100BF2CE000BF4FF08040C0692F
:1025100064F313404FF08041C86100BF21E000BF69
:102520004FF08040C06964F317504FF08041C8619C
:1025300000BF16E000BF4FF08040C06964F31B602D
:102540004FF08041C86100BF0BE000BF4FF08040FA
:10255000C06964F31F704FF08041C86100BF00E0A4
:1025600000BF00BF0120A8400643304600F09BFC9E
:1025700000BF36E700BF0449096960F30301024A5E
:10258000116100BF704700000000024010B5044612
:10259000601E0F2800DC04E0252208A10FA000F037
:1025A000CBFB611EC8B21349496860F30301114AAD
:1025B000516000BF012000F05DFC10BD2E2E5C7349
:1025C000646B5C7372635C736F635C647269766581
:1025D000725C737973636F6E2E63000028616862AA
:1025E0005F646976696465722D31293C3D30786697
:1025F000000000000000024010B50446601E0F28D5
:1026000000DC04E02C220AA111A000F095FB611E61
:10261000C8B24FF08041496860F303014FF0804237
:10262000516000BF01208107086000BF10BD00009D
:102630002E2E5C73646B5C7372635C736F635C649B
:1026400072697665725C737973636F6E2E630000D6
:1026500028617062305F646976696465722D312922
:102660003C3D30786600000010B50446601E0F281F
:1026700000DC04E0342208A10FA000F05DFB611E25
:10268000C8B21349496860F30711114A516000BF8D
:10269000022000F0EFFB10BD2E2E5C73646B5C73A8
:1026A00072635C736F635C6472697665725C737984
:1026B00073636F6E2E63000028617062315F64691E
:1026C00076696465722D31293C3D307866000000E2
:1026D0000000024070B505460C46601EB0F5005F74
:1026E00000DA04E03C2212A119A000F025FB012D24
:1026F00000DC04E03D220EA11BA000F01DFB35B95B
:10270000002000F0BDFB042000F0B4FB0EE0022C22
:1027100000DB04E0472206A11AA000F00DFB611EB9
:1027200088B200F0ADFB042000F0A4FB70BD0000F7
:102730002E2E5C73646B5C7372635C736F635C649A
:1027400072697665725C737973636F6E2E630000D5
:10275000287274635F646976696465722D31293CFF
:102760003D307831666666007274635F7372633CF5
:102770003D727463636C6B5F66726F6D5F616862FC
:10278000000000007274635F646976696465723E7C
:102790003D32000010B1012812D108E000BF094A03
:1027A000926861F30002074B9A6000BF08E000BF27
:1027B000044AD26961F30002024BDA6100BF00BF34
:1027C00000BF70470010004037B504469DF8040074
:1027D0000021FFF7DFFF9DF8040010B1012846D16A
:1027E00022E09DF806002349896860F34101214AEF
:1027F000916000BF9DF805001146896860F3820171
:10280000916000BF0299B4FBF1F1491EC8B2910476
:10281000496860F30B219204516000BF002201213E
:10282000104600F037FB23E09DF806001149C96906
:1028300060F341010F4AD16100BF9DF805001146C8
:10284000C96960F38201D16100BF0299B4FBF1F163
:10285000491EC8B29104496860F30F319204516077
:1028600000BF00221146012000F014FB00E000BF71
:1028700000BF3EBD0010004010B1012808D103E0A8
:1028800000BF0449C96803E000BF0249096A00BFEC
:1028900000BF70470010004010B1012812D108E0BD
:1028A00000BF094A126861F31702074B1A6000BFA4
:1028B00008E000BF044A526961F31702024B5A61F3
:1028C00000BF00BF00BF704700100040F0B50122FC
:1028D00000231C4615468E0146EA001646EAC2064B
:1028E00046EA830646EA44062E43024FBE6000BF16
:1028F000F0BD00000030004037B504462046019985
:1029000000F0AEF89DF80A0018B9002000F078FB3E
:102910000DE0012000F074FB9DF80A00022803D1AD
:10292000012000F04FFB02E0002000F04BFB9DF87F
:1029300009000D49C96860F382010B4AD16000BFEC
:102940009DF808001146C96860F30101D16000BF1D
:102950009DF80B00012802D100F020FB02E00020CE
:1029600000F01CFB3EBD00000030004010B51FE031
:1029700000BF1148806800F00F0400BF012C00D197
:1029800017E0022C0CD0042C07D0062C02D00C2C03
:102990000CD108E000F0E2FB09E000F041FB06E0AA
:1029A00000F0C0FC03E000F03BFB00E000BF00BF14
:1029B000DEE700BF10BD0000003000402DE9F0410F
:1029C00004460D4616461F4604B105E04FF49E72BC
:1029D00010A118A000F0B0F905B105E040F23D12D9
:1029E0000CA117A000F0A8F906B105E04FF49F7202
:1029F00008A116A000F0A0F918484561846106629C
:102A000047620020154981F82A00012000F0E4FA0D
:102A1000BDE8F0812E2E5C73646B5C7372635C7333
:102A20006F635C6472697665725C756172742E6343
:102A30000000000062756670747220213D20300035
:102A400073697A6520213D203000000063616C6C61
:102A50006261636B20213D2030000000840400206F
:102A60002DE9FF5F05460C462809B0FBF4F086B25D
:102A70002809B0FBF4FB584600F0E0FD81462046F3
:102A800000F0DCFD0190284600F0D8FD4FF08341B6
:102A9000009000F0F5FC8346019900F0F1FC8246BD
:102AA000494600F0ABFE4FF08441029000F0DAFDA1
:102AB0004FF07C51039000F081FC804600F0A2FDB5
:102AC000C7B2012000F074FAF0B20849086000BFF4
:102AD0003012486000BF38460449C031086000BF6A
:102AE000002000F065FABDE8FF9F000000300040C4
:102AF00010B5044600BF00F00DFC0028FBD02046B6
:102B000000F056FC10BD70B504460D46002604E0EA
:102B10002078FFF7EDFF641C761CAE42F8D370BD41
:102B2000054910B5603104D048680968BDE8104017
:102B30000847FDF72DFC000088000000054910B58E
:102B4000683104D048680968BDE810400847FDF7BF
:102B50001FFC000088000000054910B5883104D032
:102B600048680968BDE810400847FDF711FC0000FF
:102B700088000000054910B5203104D04868096874
:102B8000BDE810400847FDF703FC00008800000086
:102B9000054910B5103104D048680968BDE81040F7
:102BA0000847FDF7F5FB000088000000054910B557
:102BB000703104D048680968BDE810400847FDF747
:102BC000E7FB00008800000010B5124801684901C9
:102BD000FCD54EF66021002000BF00BF00BF00BF43
:102BE00000BF00BF401C8842F6D30C490A48086069
:102BF0000820FFF7BFFC0220FFF7C8FC0420FFF706
:102C0000FBFC0220FFF730FD6421BDE810400120ED
:102C1000FFF760BD00B0004000E1F5053C04002076
:102C200070B5002060F3070460F30F24012060F307
:102C300017440A4D0A490B4800F024F82A46214659
:102C4000E800FFF7C1FD4FF49C710020FFF724FE60
:102C5000BDE8704001210020FFF79CBD08AF2F00A8
:102C6000D0020020B12E0000054910B5583104D023
:102C700048680968BDE810400847FDF789FB000077
:102C80008800000010B530B10A460146BDE810408A
:102C90000B2000F073B8FDF77BFB000010B501229C
:102CA00008210020FFF78CFB012209211046FFF7C5
:102CB00087FB0E490E4800F02DF8032060F307044F
:102CC0002246002060F3174260F30F224FF4E131F7
:102CD0000848FFF711FE03210020FFF7F7FD4FF032
:102CE000E0214FF40040C1F8000110BD580400205D
:102CF0006D29000040787D01054910B5783104D078
:102D000048680968BDE810400847FDF741FB00002E
:102D10008800000010B538B131B10A460146BDE85F
:102D200010400F2000F02AB8FDF732FB0149486837
:102D3000096808478800000072B6034601A0FDF745
:102D400081FAFEE7417373657274696F6E204661A4
:102D5000696C65643A2066696C652025732C206C6B
:102D6000696E652025642C2025730A0010B5044681
:102D7000C0B2FFF7BDFE204610BD000010B51228FE
:102D800001D3FDF705FB034B43F8301003EBC00004
:102D9000426010BD88000000FFF780FFFFF740FF92
:102DA000DFF8AC90DFF8ACA02B4DDFF8B0B0DFF867
:102DB000B08000244FF400664FF0E027D9F80012ED
:102DC0004846D9F80022CAF8002050F8801F006851
:102DD0002860FFF741F9286890B90023214A0D21A6
:102DE0002148FFF7EBFD9BF80000012808D10122E4
:102DF000C7F800611D4801781D480078FFF748F9C1
:102E0000C7F88061BFF34F8FBFF36F8FC8F80040E2
:102E1000C8F80440C8F80840C8F80C40C8F810408A
:102E2000C8F81440C8F81840C8F81C40C8F820403A
:102E3000C8F82440C8F82840C8F82C40C8F83040EA
:102E4000C8F83440C8F83840C8F83C40B6E700003D
:102E500000A0002018030020B00300204200002042
:102E600000000020B1310000440400204100002097
:102E70004000002001490860704700000000024047
:102E80000349496860F31421014A5160704700000A
:102E90000000024010B5C30043EA810313434FF022
:102EA0008044236010BD4FF08041486170470000AE
:102EB000344910B5486C401C4864334850F8802FA2
:102EC000324B1A600268324B1A60D0F88021D0F879
:102ED0008001304C88642078C00701D0FDF75EFC8B
:102EE0002078800701D5FDF723FD2078400701D524
:102EF000FDF7E8FD2078000701D5FDF7ABFE20784F
:102F0000C00601D5FDF76EFF2078800601D5FEF7DB
:102F100031F82078400601D5FEF7F6F82078000653
:102F200001D5FEF7BDF91C4C2078C00701D0FEF793
:102F300087FA2078800701D5FEF752FB20784007FA
:102F400001D5FEF71DFC2078000701D5FEF7E4FC53
:102F50002078C00601D5FEF7ABFD2078800601D5AC
:102F6000FEF772FE2078400601D5FEF735FF207887
:102F7000000601D5FEF7F0FFBDE810400020FFF786
:102F80007BBC0000D002002000A00020AC03002089
:102F9000B0030020410000204000002003490969DF
:102FA00060F34511014A1161704700000030004094
:102FB0000349C96860F3C711014AD1607047000036
:102FC000003000400349C96860F30411014AD16030
:102FD00070470000003000400349496860F3000179
:102FE000014A5160704700000030004003494968C1
:102FF00060F34101014A5160704700000030004019
:103000000349C96860F3C301014AD16070470000F9
:103010000030004001480068704700000030004068
:1030200070B50024002678E0414890F82A00002876
:1030300033D1FFF7EFFFC1B23D48806901703C48D2
:103040004069401E3A49486108468069401C8861D1
:1030500008464069002860D1002135488161002080
:10306000FFF7BAFF3248046A466A84B10021016260
:10307000416290F8280010B93046A0470CE00020CB
:103080002B4981F8280001213046A04704E038226E
:1030900028A130A0FFF750FE47E0254890F82A000D
:1030A00001283AD1FFF7B6FFC5B2214890F82900B0
:1030B000012807D100BF00F02DF90028FBD02846D9
:1030C00000F076F91A488069057019488069401C3B
:1030D00017498861084690F82B00A8421DD10020AE
:1030E000FFF77AFF1248046A466A84B10021016240
:1030F000416290F8280010B93046A0470CE000204B
:103100000B4981F8280001213046A04704E06322E2
:1031100008A110A0FFF710FE07E000BF0E484069AD
:1031200000F0010000287FF47FAF00BF70BD0000F9
:10313000840400202E2E5C73646B5C7372635C737A
:103140006F635C6472697665725C756172742E631C
:1031500000000000300000000030004070B5002486
:10316000002600BF10484069C5B205F0020098B1C2
:1031700003E000BF0C48006800BF00BF0A48406978
:1031800000F001000028F4D134B1002107480162A9
:10319000416201213046A04705F0080018B1012026
:1031A000024981F8280070BD0030004084040020EE
:1031B0002DE9F04109B1FDF7EBF85448544D534B5C
:1031C00002782A714078E870D9789B78CD2A02D0AD
:1031D000EB2A3DD191E04D494D4E8A78CB788F7ADC
:1031E00003EB022294B20A79803613044A7903EB86
:1031F00002228B791344CA7907EB026C0A7A17040E
:103200004A7A07EB02220F7BC97A624407EB01215D
:1032100089B2F0B1012821D0022824D0032827D078
:1032200004282AD005282DD0062830D0072833D0EE
:10323000082836D0092839D00A283CD00B283FD09E
:103240000C2842D00D2846D00E284AD00F284ED048
:1032500056E02C81AB64B260298551E06C81EB644F
:10326000F26069854CE0AC812B653261A98547E04D
:10327000EC816B657261E98542E02C82AB65B261DD
:1032800029863DE06C82EB65F261698638E0AC82AC
:103290002B663262A98633E0EC826B667262E98645
:1032A0002EE02C83AB66B262298729E06C83EB6643
:1032B000F262698724E0AC832B673263A9871FE041
:1032C000EC836B677263E9871AE02C84AB67B263A7
:1032D000A5F8401014E06C84EB67F263A5F8421087
:1032E0000EE0AC8433603264A5F8441008E0EC844E
:1032F00073607264A5F8461002E028706B70A970C4
:10330000BDE8F0410D210148FDF74DB8440400200F
:10331000400000200248C06FC0F34000704700002A
:103320000030004070B50024002526E016494968A9
:10333000087800F03DF814480068401E1249086003
:1033400008464068401C486008460068A8B900204C
:103350004860FFF74BFE0C48C46805693CB100208B
:103360000949C860086100212846A04704E0C4223A
:1033700006A10EA0FFF7E0FC03E0FFF7CBFF01285A
:10338000D4D000BF70BD0000840400202E2E5C73DA
:10339000646B5C7372635C736F635C6472697665A3
:1033A000725C756172742E630000000030000000D2
:1033B00001490860704700000030004090EA010FAA
:1033C00048BF81F0004100F12082421A3CBF801AC0
:1033D00089184FEAD0524FF07F4C1CEA410FA2EB04
:1033E000D15318BF9CEA026F00F03B804FF0004CB5
:1033F0004CEA00204CEA012121FA03FC10EB0C0CF2
:103400001ED202F1FF325FEA1C2040EBC25038BFEF
:1034100070471CF07F0F4FEA400C18BFBCF17F4F84
:1034200038BF7047C3F12003994008BF20F0010066
:10343000BCF17F4F38BF7047A0F1C04000F0D9B950
:103440004FEA3C00000A40EBC25028BF1CF0FF0FBF
:103450004FEA400CE6D018BFBCF17F4F38BF704731
:10346000EAE79CEA026F05D010EA5C0F08BF00F0A3
:103470000040704710B500F076F900BF64FBBE3E17
:103480004FF47F0C1CEAD0121EBF1CEAD11392EA43
:103490000C0F93EA0C0F00F0858090EA010F48BFF3
:1034A00042F4807240F4000C41F400002CF07F41A3
:1034B00020F07F4000B58142A2EB03020FF2081C0E
:1034C000ACEB504EC0F100009EF800E04FEA4E0E0B
:1034D00000FB0EFC38BF49004FEA2C1C02F5FA0233
:1034E0000CFB0EF34FEACE1E4FEA112C4FEAC1211E
:1034F0000EEB635E42EB22420EFB0CFC4FEA1C53C8
:1035000000FB03114FEA112C4FEA01310EFB0CFCBA
:103510004FEADC4C00FB0C11C14228BF09184CEBF0
:1035200003335DF804EB10EB410143EBC250B2F5FD
:103530007C0F38BF704729D512F0F00F1CBF00F187
:10354000C04000F0004070470081828384858687F8
:1035500088898B8C8D8E8F919293959697999A9C52
:103560009D9FA0A2A3A5A7A8AAACAEB0B2B3B5B7C1
:10357000B9BCBEC0C2C5C7C9CCCED1D4D7D9DCDF97
:10358000E2E6E9ECF0F3F7FAFE0000004FEA400C47
:103590000CF1807CBCF17E4F28BF7047B0F1C04079
:1035A00000F027B990EA010F0CEAD11348BF42F4AA
:1035B0008072624538BF634507D213F47F0F16D07F
:1035C00080EA010000F00040704710B500F0CBF831
:1035D000097EFC3E00F005B880EA010000F00040E2
:1035E000704780EA010000F0004000F002B912F4D8
:1035F0007F0F04BF0248704780EA010000F0F9B86D
:103600000000C07F41000B0ED3F19E0208D950F498
:1036100000034FEA032323FA02F048BF40427047F9
:1036200010B500F0A0F800BF499224800020704738
:103630006FF0004282EA200070470000B0FA80F389
:1036400010FA03F2C3F19D030AD0D90501EB122051
:10365000530638BF704700F1010008BF20F0010099
:10366000704700004FF47F0C1CEAD0121EBF1CEA0A
:10367000D11392EA0C0F93EA0C0F00F0478090EA06
:10368000010F48BF42F480724FF0004C4CEA00201A
:103690004CEA012102EB0302A0FB0113A2F5000298
:1036A000002918BF43F001035B0028BF4FEA330332
:1036B00042EB22425FEA132C4CEBC2502EBFBCEB14
:1036C000436FB2F57C0F70474FEA036CBCF1004FBB
:1036D00008BF20F00100B2F57C0F38BF70470BD552
:1036E00082F0FF0212F5803FC8BF704700F1C04072
:1036F000D8BF00F00040704700F5000C5FEA4C0CAA
:1037000048BF7047B0F1C04000F073B890EA010FB5
:103710000CEAD11348BF42F48072624538BF63455A
:1037200004D280EA010000F00040704710B500F0BC
:103730001AF800BF8900013E00F007B800F009B890
:103740005FEA410C5FEA1C6C08D080EA010000F0DF
:1037500050B85FEA400C5FEA1C6CF6D14FF00040B5
:10376000A0F5800070470EF1020E2EF0030E5EF8F9
:10377000044B244204D44FEA4102B2F17F4F11D8E6
:103780004FEA4003B3F17F4F0CD80ED14FEAD07C03
:10379000B2F17F4F0CEB4C0C0CF1020C08BF4CEB60
:1037A000D17C04E04FF0080C01E04FEAD17C0CEB37
:1037B0004C0324FA03F404F00704B4F1040C06D219
:1037C0000EEB840CBDE810404CF0010C6047DFE8C4
:1037D0000CF0070802024FF00040A0F5800010BD79
:1037E0000846420018BFD2F1807288BF00F0004046
:1037F00010BDFF2141EAD050C005704790EA010F8B
:1038000048BF81F000413FF5E0AD421A04D882F094
:103810000042A0EB020011444FEAD0524FF07F4C1F
:103820001CEA410FA2EBD15318BF9CEA026F4AD0A9
:103830004FF0004C4CEA00204CEA012121FA03FC35
:10384000B0EB0C0C0FD412F0FE0F36D05FEA4C0038
:103850001DD5001240EBC25038BF70471CF03F0F1F
:1038600018BF70470BE0A2F101025FEA1C2040EB99
:10387000C25038BF70471CF07F0F18BF7047C3F1AC
:103880002003994014BF401E20F0010070478008BB
:103890004FEA122308BF7047B0FA80FCA2EB0C027B
:1038A000CCF1280C60FA0CF093EA122F04BF00EB65
:1038B000C25070474FEAC3707047130A5FEADC10CA
:1038C00008BF7047F6E79CEA026F04D010EA5C0F6D
:1038D00008BF0020704710B5FFF745FF40DFF63EF8
:1038E00081F000407047000008390000000000200F
:1038F0004404000054010000203A00004404002069
:10390000CC050000B00100000145130D0A0B1CE8B6
:10391000030212FF091C0223B80B093A040B3CE80E
:1039200003048108122A454C463220424F4F54204E
:103930004F4B0D0A0A0D2D01130A0DA8222D5765B4
:103940006C636F6D6520746F2075736520416E6CBC
:103950006F676963204D43552044656D6F200129D1
:1039600030B8144861726477617265207665722E92
:103970003A2056312E3024E9300D2A536F667430C8
:103980005F557064617465110810123A20417072BD
:10399000696C2031322C32303138301D506C656109
:1039A000B8281273656C65637420746865206E7541
:1039B0006D626572D1480E746573742066756E63AE
:1039C00074696F6E302D313A2054161D4750494F9F
:1039D0000F5A320F1E54696D6572105A33101C5203
:1039E00054430E5A340E1C444D410E5A350E1D459B
:1039F0005854490F5A360F2B53500E5A370E2B4935
:103A000032397A380E1A530E5A390E1C5744540E56
:103A10005A410E2B41442A02FFAA016D44E1F505EB
:0400000500000119DD
:00000001FF
